:1000000045C0000065C00000A7C000004FC0000050
:100010004DC000004BC0000049C0000047C00000B8
:1000200045C0000043C0000041C000003FC00000C8
:100030003DC000003BC0000039C0000037C00000D8
:1000400035C0000033C0000031C000002FC00000E8
:100050002DC000002BC0000029C0000027C00000F8
:1000600025C0000023C0000021C000001FC0000008
:100070001DC000001BC0000019C0000017C0000018
:1000800015C0000013C0000011C0000011241FBEE5
:10009000CFEFD0E1DEBFCDBF21E0A0E0B1E001C0F5
:1000A0001D92A230B207E1F7A0D0B7C0A9CF1816B1
:1000B00019066CF420E030E0EFECF7E03197F1F74F
:1000C00000C000002F5F3F4F28173907A9F7089598
:1000D0001F920F920FB60F9211240BB60F922F930F
:1000E0003F934F935F936F937F938F939F93AF93C0
:1000F000BF93EF93FF9380910001909101018138AC
:10010000910544F0892F880F880B9093000180930C
:10011000010195BB8091000190910101880F991F09
:10012000909301018093000185BB12BA88EE93E0A1
:10013000BEDFFF91EF91BF91AF919F918F917F9122
:100140006F915F914F913F912F910F900BBE0F9048
:100150000FBE0F901F9018951F920F920FB60F921F
:1001600011240BB60F922F933F934F935F936F938E
:100170007F938F939F93AF93BF93EF93FF93809160
:10018000000190910101813891053CF0892F880F81
:10019000880B909300018093010180910001909160
:1001A00001018130910531F0880F991F9093010171
:1001B000809300018091000185BB83E082BB88EEC3
:1001C00093E075DFFF91EF91BF91AF919F918F9178
:1001D0007F916F915F914F913F912F910F900BBE47
:1001E0000F900FBE0F901F90189581E090E09093B4
:1001F0000101809300018FEF84BB81BBEAE6F0E050
:1002000080818B60808389B7836089BF789483E025
:0E02100082BB8091000185BBFFCFF894FFCF29
:00000001FF
