:1000000045C0000054C0000051C000004FC00000B7
:100010004DC000004BC0000049C0000047C00000B8
:1000200045C0000043C0000041C000003FC00000C8
:100030003DC000003BC0000039C0000037C00000D8
:1000400035C0000033C0000031C000002FC00000E8
:100050002DC000002BC0000029C0000027C00000F8
:1000600025C0000023C0000021C000001FC0000008
:100070001DC000001BC0000019C0000017C0000018
:1000800015C0000013C0000011C0000011241FBEE5
:10009000CFEFD0E1DEBFCDBF21E0A0E0B1E001C0F5
:1000A0001D92AD30B207E1F73CD163C1A9CF1F92D9
:1000B0000F920FB60F9211242F933F934F935F939C
:1000C0006F937F938F939F93AF93BF9380916A00B9
:1000D000823009F077C08091000190910101892B55
:1000E00009F46CC0209103013091040129303105DD
:1000F0000CF064C084B590E0A0E0B0E0809305010E
:1001000090930601A0930701B0930801AC01BD01D3
:10011000425051096109710943305105610571056A
:1001200070F480910201882319F0880F80930201F6
:100130002F5F3F4F309304012093030128C006979F
:10014000A109B1090397A105B105B0F4809102019D
:10015000811104C081E08093020104C0880F816096
:100160008093020180910301909104010196909384
:100170000401809303010BC010920201109201014F
:1001800010920001109204011092030117C0809197
:10019000000190910101019789F4809103019091F0
:1001A0000401089759F48091020183B9109201016A
:1001B00010920001109204011092030183E08093D9
:1001C0006A0038C08091000190910101892B91F45F
:1001D00084B590E0A0E0B0E00797A109B1090797C6
:1001E000A105B105E0F481E090E0909301018093D6
:1001F000000115C084B590E0A0E0B0E00697A10929
:10020000B1090397A105B10550F0109201011092B8
:100210000001109204011092030110920201109249
:10022000050110920601109207011092080182E068
:1002300080936A001092090110920A0110920B013A
:1002400010920C0114BCBF91AF919F918F917F913F
:100250006F915F914F913F912F910F900FBE0F9033
:100260001F90189585B5846085BD14BCEAE6F0E062
:1002700080818360808389B7816089BF7894089585
:10028000181619066CF420E030E0EFECF7E0319737
:10029000F1F700C000002F5F3F4F28173907A9F77B
:1002A0000895181619065CF420E030E042E04A9503
:1002B000F1F700C02F5F3F4F28173907B9F70895AE
:1002C000DF92EF92FF920F931F93CF93DF93D82F7C
:1002D00018BA84E690E0E5DFC8E01FEFF12C00E0FB
:1002E0000F2EF4E6DF2EF02DE12C18BBDD231CF4DD
:1002F0008D2D9E2D02C08F2D902F8C599F4FD1DFB9
:1003000018BA82E390E0CDDFDD0FC15071F78FEFB7
:1003100088BBDF91CF911F910F91FF90EF90DF90FD
:1003200008958FEF8ABB87BB14BA11BA82B91092B5
:1003300061001BBA13B896DF0EE511E0079B0AC0F7
:10034000C02FD12F87E0BCDF81E090E099DF2197BB
:10035000C9F70BC0069B09C0C02FD12F8EEFB0DFAD
:1003600081E090E08DDF2197C9F781E090E088DFA0
:06037000E5CFF894FFCF79
:00000001FF
